:020000040800F2
:1000000028350020CD010008F50F0008610F000819
:10001000F10F0008510E00084D1400080000000008
:100020000000000000000000000000006111000856
:10003000550E00080000000071100008851100082E
:10004000E7010008E7010008E7010008E7010008F0
:10005000E7010008E7010008E7010008E7010008E0
:10006000E7010008E7010008E7010008E7010008D0
:10007000E7010008E7010008E7010008E7010008C0
:10008000E7010008E7010008E7010008E7010008B0
:10009000E7010008E7010008E7010008E7010008A0
:1000A000E7010008E7010008E7010008E701000890
:1000B000E7010008E7010008E7010008E701000880
:1000C000E7010008E7010008E7010008E701000870
:1000D000E7010008E7010008E7010008E701000860
:1000E000E7010008E7010008E701000800F002F856
:1000F00000F05DF814A696E8000CB244B344DA456B
:1001000001D100F054F8BAE80F000FA696E83000CD
:10011000A5EB040504EB0607AAEB0704A7F101070A
:100120004FEA15154FEA3414A4F10104AC4201D38F
:1001300000F03DF813F0010F18BFFB1A43F0010364
:1001400000F001F8DBE71847003100002031000023
:10015000103A24BF78C878C1FAD8520724BF30C8F3
:1001600030C144BF04680C60704700007047000055
:100170000023002400250026103A28BF78C1FBD8B0
:10018000520728BF30C148BF0B607047642900F098
:100190007D80002070471FB59DE8030000F020FC23
:1001A00000F010FA1FBD10B500F075FA10BD00F098
:1001B000A5FA1146FFF7EFFF01F080F900F0ACFB64
:1001C00003B4FFF7F0FF03BC00F088FD0948804747
:1001D00009480047FEE7FEE7FEE7FEE7FEE7FEE729
:1001E000FEE7FEE7FEE7FEE704480549054A064B41
:1001F0007047000099110008ED000008282F00202A
:100200002835002028310020283100200FB404496F
:1002100010B503AA029800F075F910BC5DF814FB44
:100220006C0000202DE9F0410E46044600202062BB
:100230002046E168884730B3252805D0D4E901215C
:100240009047206A401CF2E7E16820460027884773
:10025000050018D0A5F14100192802D820354FF427
:1002600000673246294620462760FFF78FFF40B1DE
:10027000012804D0F61D26F007060836D8E7361DFB
:10028000D6E72846DAE7206ABDE8F0812DE9F0419B
:100290000646002410687529314616A510D0AFF324
:1002A0000080002802DA404213A507E031688A077F
:1002B00001D512A502E0490704D511A5012401E0EA
:1002C000AFF3008000210A2206F1240709E0B0FB09
:1002D000F2FCB0FBF2F302FB1C00303078541846FD
:1002E000491C0028F3D123462A463046BDE8F04198
:1002F00000F0AFB8000000002D0000002B0000004F
:100300002000000010B5044603E001F0C5F8401CD1
:1003100009D014F8010B05490028F6D1BDE81040BA
:100320000A2001F0B9B84FF0FF3010BD6C0000207A
:10033000032A40F2308010F0030C00F0158011F811
:10034000013BBCF1020F624498BF11F801CB00F8E9
:10035000013B38BF11F8013BA2F1040298BF00F83D
:1003600001CB38BF00F8013B11F0030300F0DC8043
:10037000083AC0F0088051F8043B083A51F804CB21
:10038000A0E80810F5E7121D5CBF51F8043B40F8E7
:10039000043BAFF30080D20724BF11F8013B11F8F2
:1003A00001CB48BF11F8012B24BF00F8013B00F836
:1003B00001CB48BF00F8012B70474FF00002042921
:1003C000C0F0128010F0030C00F01B80CCF1040C84
:1003D000BCF1020F18BF00F8012BA8BF20F8022BB8
:1003E000A1EB0C0100F00DB85FEAC17C24BF00F85E
:1003F000012B00F8012B48BF00F8012B70474FF08C
:10040000000200B5134694469646203922BFA0E864
:100410000C50A0E80C50B1F12001BFF4F7AF090770
:1004200028BFA0E80C5048BF0CC05DF804EB890061
:1004300028BF40F8042B08BF704748BF20F8022BA4
:1004400011F0804F18BF00F8012B704770477047BC
:1004500070472DE9F0470D4699469246044600F153
:1004600024080168880604D5E06921F010012160A4
:1004700000E00120A84201DD471B00E00027A16940
:100480007A1902EB0900081AA0612078C00602D48C
:100490002046AFF30080002608E0D4E901211AF8D5
:1004A00006009047206A401C761C20624E45F4DB13
:1004B0002078C0060AD52046AFF3008006E0D4E9D4
:1004C000012130209047206A401C2062381EA7F18D
:1004D0000107F4DC07E0D4E9012118F80500904792
:1004E000206A401C2062281EA5F10105F3DC20468D
:1004F000AFF300802078000602D50220BDE8F08727
:100500000120FBE7074B70B50D467B4400F043F834
:100510000446284600F052F810B14FF0FF3070BD8D
:10052000204670BD8B0F000010B5203AC0F00B8044
:10053000B1E81850A0E81850B1E81850A0E81850D9
:10054000203ABFF4F5AF5FEA027C24BFB1E818504F
:10055000A0E8185044BF18C918C0BDE810405FEAB1
:10056000827C24BF51F8043B40F8043B08BF70472D
:10057000D20728BF31F8023B48BF11F8012B28BF32
:1005800020F8023B48BF00F8012B704701694A1C64
:1005900002610878704700B58FB0CDE901310021C4
:1005A000059105497944CDE9031011466846FFF7E6
:1005B00039FE0FB000BD0000E5FFFFFF007B00F03B
:1005C0008000704710B542485421FFF718FF41489A
:1005D0005421FFF714FF40485421FFF710FF3F4913
:1005E0003B483C4A3F4B08603D490A603A49196024
:1005F000531C0365481C1065012008653B48344ABC
:1006000039A1784400F0EAF820B9384878440A382B
:1006100000F08BF937482F4A35A1784400F0DEF816
:1006200020B9344878440A3800F07FF932482A4A21
:100630002FA1784400F0D2F820B92F4878440A3826
:1006400000F073F940232248DC000021224600F02C
:10065000A1F820B125487844543800F066F91D48C7
:1006600022464023002100F095F820B1214878442B
:10067000543800F05AF9184822461023002100F09F
:1006800089F8002806D01C487844BDE81040563848
:1006900000F04BB910BD104870B5006D20F001049A
:1006A0000B4800F013F90B4800F010F90A4800F06D
:1006B0000DF909E0206D20F00105204600F006F953
:1006C000204600F040F82C46002CF3D170BD00000D
:1006D000180000206C000020C00000200000002056
:1006E0000400002008000020720000001E2C000002
:1006F000770000000A2C0000F62B0000754600F081
:100700004FF9AE4605006946534620F0070085467E
:1007100018B020B5FFF768FDBDE820404FF0000697
:100720004FF000074FF000084FF0000BAC46ACE86C
:10073000C009ACE8C009ACE8C009ACE8C00921F0C8
:1007400007018D46704770B50446051F00F02CF96F
:100750000068002C14BF446870BD002C18BFAC4268
:100760003CBF20466468F8D301680A18AA4218BF43
:10077000456003D12A680546114401602868411983
:10078000A1421CBF6C6070BD61686960216808444B
:10079000286070BD70B5C468A50713D0650211D478
:1007A000B2F5807F09D0B2F5007F06D0B2F5806F38
:1007B00008D1012300F1240106E05D1E6FF07F46A1
:1007C000B54201D3012070BD0161C361416024F4D1
:1007D00070611143C160002070BD00002DE9F0413F
:1007E0000C461646070047D0104600F06FF82078F8
:1007F000611C61280AD0722802D077283CD102E01F
:100800000125002405E00225042402E0082448F222
:10081000020511F8010B2B2806D0622809D011F827
:10082000010C74280AD00BE045F0030544F00204E3
:10083000EFE745F0040544F00104EAE744F0100452
:100840003846214600F078F8411C15D0002131616E
:1008500071604FF40071F560F1617061200704D59B
:1008600030460222002100F019F9306D40F00100FD
:1008700030653046BDE8F0810020FBE72DE9F0410E
:100880000D460646104C206DC10704D0410804D027
:1008900020F00104F7E722460EE0542000F0CFF8E4
:1008A00007000ED0206D47F0010108435421206558
:1008B0003846FFF7A4FD3A4629463046BDE8F041E8
:1008C0008CE70020D6E70000180000202DE9F04753
:1008D00004464FF0FF380026C568D4E90497A807FE
:1008E00018D0204600F096F9384600F02FF800287E
:1008F00000DA4646280502D54846FFF724FF4C217A
:100900002046FFF77CFD206D20F001002065304679
:10091000BDE8F0874046FBE710B50446AFF3008022
:100920002046BDE81040FFF74BBC10B500F0BCF905
:10093000BDE8104000F0B2B90EB5CDE9000100F0FD
:1009400035FA029069460120ABBE0EBD08B5694676
:1009500000900220ABBE08BD1FB58DE807006946B8
:100960000520ABBE04B010BD1FB58DE80F00694671
:100970000620ABBEF6E708B5694600900920ABBE7D
:1009800008BD1CB5CDE9000169460A20ABBE1CBDFF
:10099000704708B5694600900C20ABBE08BD00004A
:1009A0000048704714010020004870471C010020D7
:1009B000704770477047704738B504460A460020B4
:1009C0006946AFF30080002808BF38BD0246009991
:1009D000204600F090F9012038BD012000F0DFB979
:1009E000F8B5AFF30080054600200C460C2000BF90
:1009F0000646A819A0420DD9324669460020AFF339
:100A00000080070008BF00F0CAF90098A04218BF94
:100A10000546C419FFF7C8FF05600746F01D20F022
:100A200007004619284600F060F9B44208BFF8BD37
:100A3000A21B31463868BDE8F84000F05CB970B5DB
:100A40000646FFF7B1FF056806F10B0020F007042A
:100A5000B4429CBF002070BD2B466A68BAB11068D2
:100A6000A04210D304F1080188423CBF506858608E
:100A700007D35168101941601168091B0160586063
:100A80001460101D70BD13465268002AE7D121463C
:100A90002846FFF791FF0028DED170BD2DE9F04117
:100AA000044616460D464769007B80072ED038461F
:100AB000FFF761FF50BB3EB3012E02D0022E25D1BD
:100AC00004E0204600F031F905441DE03846FFF708
:100AD00060FFE168002841F01001E16005DA20467E
:100AE00000F058F80120BDE8F081C9030BD5626819
:100AF000E16A914200D81146A26911442269891A1B
:100B0000814200DD08460544002D01DA0220EAE7B3
:100B1000E16A6068E268814206D29103E06203D52F
:100B200022F4003141F01002A6690027AE4213DC26
:100B3000E16A814201D90B4600E0034603EB060C53
:100B40002369ACEB030CAC4506DD814201D98C4630
:100B500000E084469C4505D1A760276042F0200054
:100B6000A5620DE0AD1BE669AE1B8142A66000D90F
:100B70000846C01A281A20605819606022F0200028
:100B800003490840E060002084F84870ABE70000AB
:100B9000BFCFD7FFC16821F4001141F08001C160CF
:100BA00000218160016070472DE9F74F15460C4622
:100BB0004FF0FF3B3848D768D2F814A0074209D05D
:100BC0005046A969FFF7DDFE002819DB3248C04313
:100BD0000740EF604FF000496FF000484C4501D3EB
:100BE000464600E0264600993B4650463246FFF70F
:100BF000B3FEA96920F00042B21A1144A96128B1DC
:100C00002846FFF7C7FF5846BDE8FE8FA41BE5D175
:100C10000020F9E770B504460569C06A616888423A
:100C200000D80846E16821F42011E160C90312D51B
:100C3000A84208D02246411B2846FFF7B5FF10B155
:100C40004FF0FF3070BD0020E562C4E90150E0685C
:100C500020F48030E060002070BD10B50446C0680C
:100C600020F02000E060A16AA06988420DD02046F3
:100C7000FFF7D0FFE06820F4405040F01000E06043
:100C8000A06AA0612069E062606044F24001E0680F
:100C90008843E06010BD000010000200002801D071
:100CA00000F01CB87047000010B5014602A000F02B
:100CB0005DF8012010BD000053494752545245448D
:100CC0003A2052656469726563743A2063616E27E5
:100CD00074206F70656E3A200000000001491820F2
:100CE000ABBEFEE7260002007047002101604160B4
:100CF00070470C207047034640688C46002818BF98
:100D000088423CBF03464068F8D3186818448842BC
:100D100007D00CF1030020F00700001D411A521A01
:100D20000146081D0A60FFF70EBD10B50146C268F6
:100D3000900703D0900607D5886A0AE000F05CF8B7
:100D400001210160881E10BD8B69486818440B6939
:100D5000C01A91F848301BB191F84910401A10BDE3
:100D60001103FCD50028FADD401E10BD70B5054604
:100D70000C460A2000E06D1C00F037F835B12878E9
:100D80000028F8D102E0641C00F02FF814B120789C
:100D90000028F8D1BDE870400A2000F026B810B550
:100DA00000F02EF8BDE81040FFF778BF10B5431CE7
:100DB00002E010F8011B71B18107FAD14FF0013246
:100DC00002C88C1A8C4314EAC211F9D0C01A0A0660
:100DD00003D0C01E10BDC01A10BD0A0401D0801E71
:100DE00010BD0902FCD0401E10BD08B569468DF843
:100DF00000000320ABBE08BD00487047140100206E
:100E000010B5012805D0002103A0FFF7AFFF012096
:100E100010BD09A1F8E7000053494752544D454D14
:100E20003A204F7574206F662068656170206D658B
:100E30006D6F7279000000003A2048656170206D86
:100E4000656D6F727920636F72727570746564007E
:100E5000FEE7000070470000002808BF704710B58B
:100E60004EF2100141F6401CCEF20001C0F2010C1E
:100E70004FF0000E05220423C1F804C0C1F808E0B9
:100E80000A6000BF0C68E403FCD501380B60F3D1A5
:100E9000BDE8104070470000CA7802F00F0CD3067E
:100EA00044BF8B784CEA030C2DE9F04709880B0608
:100EB00024D086465EF8143B00F1100800254FF060
:100EC000010A4FF00F09002406E000BF376001342B
:100ED000082C05F1040510D00AFA04F70F42F6D0E9
:100EE00009FA05F6B3430CFA05F63343282A764689
:100EF000ECD0482AEBD14646E8E70360B1F5807FA5
:100F000038BFBDE8F087436800F1100E00F1140A05
:100F100000254FF480794FF00F08002706E000BF4E
:100F200026600137082F05F1040510D009FA07F6ED
:100F30000E42F6D008FA05F4A3430CFA05F4234355
:100F4000282A5446ECD0482AEBD17446E8E743609F
:100F5000BDE8F0878068084018BF01207047000096
:100F6000FEE70000B0B540F60044C4F2010420469C
:100F70004FF40061FFF7EEFFA0B120460221FFF71A
:100F8000E9FF78B120464FF48061FFF7E3FF0128C5
:100F900008D004F580508021FFF7DCFF01281CBF3A
:100FA0000020B0BD0A20FFF757FF20464FF4006134
:100FB000FFF7D0FFB0FA80F0450920460221FFF785
:100FC000C9FF002820464FF4806108BF0225FFF7C3
:100FD000C1FF012804F580504FF0800108BF0325B0
:100FE000FFF7B8FF012808BF04252846B0BD000060
:100FF000FEE700007047000010B5C17800294EF2EE
:101000000011CEF200011AD04EF60C52CEF20002C0
:101010001268072323EA12220F23C2F1040C23FAD9
:1010200002F24378847890F800E003FA0CF322404F
:101030001A43120101EB0E0383F8002300E0803114
:101040000078012300F01F0203FA02F2C0F34210FD
:1010500041F8202010BD000040F080604EF60C5199
:1010600040F0FD70CEF20001086070470000000003
:10107000EFF30980BFF36F8F0D4B1A6820E9F00F73
:1010800010602DE908404FF0500080F3118801F006
:1010900049FA4FF0000080F31188BDE80840196854
:1010A0000868B0E8F00F80F30988BFF36F8F7047CE
:1010B000D4030020002941F21801C4F202010A6899
:1010C0000CBF22EA000010430860704710B541F2DF
:1010D0000404C4F20204226802F00C02082A41F25D
:1010E0000022C0F27A0212D12368D4F800C0C3F300
:1010F000834E5FEACC330EF1020C02D523689B03CA
:1011000003D540F60012C0F23D020CFB02F2026071
:10111000226843F23423C2F30312C0F600039A5C40
:101120000168D14041602268C2F302229A5C21FA30
:1011300002F282602268C2F3C2229A5C43F2302338
:10114000D140C1602268C0F60003C2F381329A5CCC
:10115000B1FBF2F1016110BD0000000000000000D1
:10116000074B19680868B0E8F00F80F30988BFF3EF
:101170006F8F4FF0000080F311884EF00D0E704716
:10118000D403002080B501F085FD012808BF80BD93
:10119000BDE8804001F026BA82B041F20400C4F2FA
:1011A000020050F8041C002241F0010140F8041C28
:1011B0000168CFF6FF021140016050F8041C4FF6A1
:1011C000FF72CFF6F662114040F8041C50F8041C80
:1011D00021F4802140F8041C016821F4FE01016023
:1011E0004FF41F01416000210191009150F8041C4F
:1011F00041F4803140F8041C50F8041C01F4003123
:101200000091019901310191009919B90199B1F544
:10121000A06FF1D150F8041CC1F340410091009936
:10122000012936D142F20001C4F202010A6842F0FB
:1012300010020A600A6822F003020A600A6842F09B
:1012400002020A600168016001680160016841F4FE
:1012500080610160016821F47C110160016841F442
:10126000E811016050F8041C41F0807140F8041C42
:1012700050F8041C8901FBD5016821F003010160CD
:10128000016841F002010160016801F00C010829C8
:10129000FAD14EF60850CEF200004FF00061016026
:1012A00002B070478289002918BF012122F4005240
:1012B00042EA413181817047F0B587B004200121B5
:1012C0000427FFF7F7FE4FF480400121FFF7F2FEFD
:1012D00043F6000440F20020C4F20104C1F603000A
:1012E000A4F5405505AE059028463146FFF7D4FDDC
:1012F0004FF48060ADF81400284631468DF8177021
:10130000FFF7CAFD4FF4E130019000204FF4402177
:1013100002900391ADF8100001A9204600F036F8C4
:101320004FF4A060FFF798FE40F22510C0F20110C4
:10133000069006A8FFF760FE204640F225510122E4
:1013400000F00CF820460121FFF7ACFF07B0F0BD1C
:101350000088084018BF012070470000C1F3421305
:1013600001F01F0C1421022B08BF1021012B4FF09C
:10137000010308BF0C21002A03FA0CF243580CBFEA
:1013800023EA02021A4342507047000070B586B04B
:101390000446008A0D46C98820F440500843208244
:1013A000A0894EF6F3110840A9882A896B89084361
:1013B00010431843A081A08AA98920F440700843F3
:1013C00001AEA0823046FFF781FE43F6000106F130
:1013D0000800C4F201018C4208BF06F10C0000684D
:1013E0001922B4F90C1050432A680123B1F1FF3FD0
:1013F000C8BF022302FA03F1B0FBF1F048F21F511B
:10140000C5F2EB11A0FB01235A096FF0630302FB45
:101410000300B4F90C300326B3F1FF3FC8BF042624
:1014200000FA06F000F13200A0FB01014FF00700C6
:10143000C8BF0F2000EA511040EA0210208106B018
:1014400070BD00006FF35F2181807047FEE70000F0
:1014500042F6D860C2F20000006858B942F6247023
:10146000C2F20000006828B942F6D460C2F200005F
:10147000006808B10020704742F6F860C2F2000030
:10148000016842F67860C2F200000068421E012046
:10149000914208BF02207047B0B543F60005C4F280
:1014A00001050446C1B22846FFF7CCFF284680213B
:1014B000FFF74EFF0028F9D02046B0BD82B0FFF7FD
:1014C000FBFE02200121002201F0BCF840F264641E
:1014D000C2F200042AA1206025A2002808BF1146FC
:1014E0000846FEF70FFF01200021032201F0AAF8B1
:1014F00040F26865C2F200052AA1286024A20028F3
:1015000008BF11460846FEF7FDFE022001F096F8DE
:1015100040F2C836C2F20006306010B126A0FEF7D5
:10152000F1FE2068316801F075F8012802D126A08B
:10153000FEF7E8FE2868316801F06CF8012802D156
:1015400027A0FEF7DFFE40F26C6641F6CD50C2F2F6
:1015500000060225C0F6000028A180220023CDE964
:10156000005601F039FB00F045FF00BFFEE700BF69
:10157000717565756531B4B4BDA8CAA7B0DC0D003E
:10158000717565756531B4B4BDA8B3C9B9A60D0050
:10159000B6FED6B5D0C5BAC5C1BFB4B4BDA8CAA73A
:1015A000B0DC0D00B6FED6B5D0C5BAC5C1BFB4B467
:1015B000BDA8B3C9B9A60D00B4B4BDA8B6D3C1D0F7
:1015C000BCAFB3C9B9A60D00717565756531CCEDB9
:1015D000BCD3B5BDB6D3C1D0BCAFB3C9B9A60D009D
:1015E000B6FED6B5D0C5BAC5C1BFCCEDBCD3B5BD6E
:1015F000B6D3C1D0BCAFB3C9B9A60D0073746172C4
:10160000745461736B00000082B040F2686540F270
:1016100064670020C2F200050FF280080FF26C0927
:10162000C2F200070DF107060FF2980A1FA48DF809
:10163000070010E0286800210022002301F046F88E
:10164000C0B2012814BF48464046FEF75BFE4FF487
:10165000FA7000F07DFDFFF785FC02288DF8070089
:10166000E8D00128F3D1386831464FF0FF3200232B
:1016700001F02CF8C0B2012805D19DF807105046A2
:10168000FEF7C4FDE3E72046DFE700BFCACDB7C5DC
:10169000D0C5BAC5C1BFCAA7B0DC0D00CACDB7C599
:1016A000D0C5BAC5C1BFB3C9B9A60D00CDF9717512
:1016B00065756531B7A2CBCDCAFDBEDDCAA7B0DC6A
:1016C0000D000000CDF9717565756531B7A2CBCD00
:1016D000CAFDBEDD5B25645DB3C9B9A60D0A000075
:1016E00082B040F2C83540F2646640F2686400207F
:1016F000C2F20005C2F200060DF1070B0FF2B409A9
:101700000FF2940AC2F200040FF27C0818A78DF8B9
:10171000070002E03846FEF7F5FD28684FF0FF317C
:1017200001F064F9316888420ED002462068824296
:10173000F0D14FF0FF3101F065F9C0B20128ECD1D2
:101740004046FEF7DFFDE8E7084659464FF0FF3216
:1017500001F0A6F8C0B2012805D19DF8071048464F
:10176000FEF754FDD9E75046FEF7CCFDD5E700BFA4
:10177000B4D3B6D3C1D0BCAFBBF1C8A1D0C5CFA242
:10178000CAA7B0DC0D000000BBF1C8A1D0C5BAC526
:10179000C1BFB3C9B9A60D007461736B32B4D37104
:1017A0007565756531B6C1C8A1CAFDBEDDCAA7B0F1
:1017B000DC0D00007461736B32B4D37175657565AF
:1017C00031B3C9B9A6B6C1C8A1CAFDBEDD5B2564E7
:1017D0005D0D0A00F0B581B00D4642F6207140F271
:1017E000D436C2F20001C2F200060F683168044626
:1017F000081D00F01FFB10B1601C0FD027E03068FF
:1018000042F68862C06AC2F200020121136801FA3E
:1018100000F023EA00001060601C18D1BDB142F650
:10182000F860C2F200004168326891608A683368EB
:10183000DA6032688B6804325A60326804328A6037
:101840003168486101680131016001B0F0BD306864
:10185000E41944600BD340F2E030C2F200000068AB
:101860003168043101B0BDE8F04000F019BB40F22E
:10187000D830C2F2000000683168043100F010FB7B
:1018800042F6C460C2F2000001688C4238BF0460B6
:1018900001B0F0BD2DE9F047044600F02DFB42F603
:1018A0007860C2F20000016840F2D4370131016073
:1018B000C2F20007396842F6EC6A40F2E436C2F23E
:1018C000000AC2F2000651B1DAF8000000283ED149
:1018D0003868E16AC06A884298BF3C6037E03C6083
:1018E0000068012833D10025701900F0C9FA1435B9
:1018F000B5F5207FF8D142F68C68C2F20008404668
:1019000000F0BEFA42F6A069C2F20009484600F0B3
:10191000B7FA42F6D860C2F2000000F0B1FA42F61F
:101920000C70C2F2000000F0ABFA42F6F860C2F2AE
:10193000000000F0A5FA40F2D830C2F20000C0F872
:10194000008040F2E030C2F20000C0F8009042F6A1
:101950008460C2F20000016842F6886201310160D1
:10196000E06AC2F20002012113688140194300EBD2
:101970008000116006EB80014A68251D9368A26013
:10198000E360936895605D60616156F820100131F5
:1019900046F8201000F0C0FADAF8000088B1386884
:1019A000E16AC06A884228BFBDE8F0874EF604505D
:1019B000CEF200004FF080510160BFF34F8FBFF3B4
:1019C0006F8FBDE8F087000042F67C6540F2E43698
:1019D00042F6886A40F2D43742F6806B42F60C78C1
:1019E00042F67869C2F20005C2F20006C2F2000AAD
:1019F000C2F20007C2F2000BC2F20008C2F20009F4
:101A000006E000BF206B00F095FA204600F092FA45
:101A10002868C0B100F070FAD8F80C00C468201D26
:101A200000F008FAD9F800000138C9F80000286869
:101A30000138286000F070FA94F851000128E4D0D1
:101A40000028DFD0E4E7306802280AD34EF60450BD
:101A5000CEF200004FF080510160BFF34F8FBFF313
:101A60006F8FDAF800103868C06A18B100200228B9
:101A7000CED308E0306801284FF0000098BF01295C
:101A800026D90228C4D3DBF800000130CBF80000CF
:101A9000DAF800103868C06A08B1002011E0306838
:101AA00001284FF0000098BF01290AD842F6C4600F
:101AB00042F62071C2F20000C2F20001006809681B
:101AC000401A022828BF00F0B9FA01F0F7FA9FE7A0
:101AD00042F6C46042F62071C2F20000C2F2000178
:101AE00000680968401A0228FFF492AFCBE70000B3
:101AF0002DE9F04182B0846C0190A06BE16B8842CB
:101B000015D294F94560D4F83880226CF7B282B1CE
:101B1000606801A9FEF70CFCD4E90101226C0025E4
:101B200010446060884224BF2068606009E000259E
:101B30001DE02068002520B9A06801F08BF9A560A0
:101B4000054608F10100FF2FA06307D000F084F9DB
:101B5000B04284BF781C84F8450008E054F8240F94
:101B600028B1204601F022FA002818BF0125284696
:101B700002B0BDE8F081000006480068006880F30C
:101B8000088862B661B6BFF34F8FBFF36F8F00DF77
:101B900000BF000008ED00E081B0002000904FF091
:101BA000500080F31188BFF36F8FBFF34F8F00BFDA
:101BB00000980028FCD001B070470000F0B581B05B
:101BC000044600F099F994F94560012E16DB04F102
:101BD00024050AE02046FFF78BFF002818BF00F01D
:101BE000A3FB70B2013E012808DDA06C0028F1D1F2
:101BF000286818B1284601F0D9F9EEE7FF2684F8E5
:101C0000456000F089F900F077F994F94470012FEC
:101C10000FDB04F1100500BF286850B1284601F021
:101C2000C5F9002818BF00F07FFB78B2013F0128FA
:101C3000F2DC84F8446001B0BDE8F04000F06CB91B
:101C400070B5044600F066FC40F2DC31C2F20001DF
:101C5000086842F6B46EC2F2000E58B184B304F0C4
:101C60000700113884429ABF24F0070000F11003E6
:101C7000002326E040F27060C2F20000C21D43075C
:101C800000F5205318BF22F0070042F6F062C2F2BE
:101C900000020026C2E9000623F00702A2F10803B1
:101CA0000B6042E902661A1A0B68CEF80020C0E900
:101CB000003242F6C060C2F200000260002CCED1B9
:101CC0000023012B4FF0000460DBDEF800008342AC
:101CD0005CD842F6F062C2F2000215686C689C4261
:101CE00007D200BF286820B144682A4605469C42B6
:101CF000F8D3086885421FD0D2F800C02E68E01AD9
:101D00001128166025D3EC1860606B6042F6F06312
:101D1000C2F200031A461B68A342FBD35068161890
:101D2000A64203D164682044144650606668A01936
:101D3000984203D0184608E0002427E00868834250
:101D400003D0D3E9000131446160A242206018BF92
:101D5000146042F6C0606968DEF80020C2F200003C
:101D60000368511A9942CEF8001038BF016042F65C
:101D7000CC626868C2F20002136840F000400021A3
:101D80000CF10804C5E90010581C106001F096F928
:101D9000204670BD40F2D430C2F20000016819B193
:101DA00001688A6C01328A6400687047034641F614
:101DB0009930C0F600004FF0807C21F0010103E96A
:101DC0000310A3F1400043F8202C704710B582B0F7
:101DD00000F092F840F2CC3C41F20960C2F2000CF3
:101DE0000224C0F600000FA180220023CDE9004CA0
:101DF00000F0F2FE40F2D03C41F2E160C2F2000C91
:101E0000C0F6000009A180220023CDE9004C00F0BB
:101E1000E3FE002000F0F2F902B0BDE8104000F04F
:101E20007BB800BF6D795461736B31006D7954617B
:101E3000736B3200D0E9013201699A60D1F804C0B5
:101E400082688445536008BF4A60002202610868C6
:101E5000013808600868704742F67860C2F20000F6
:101E60000068704740F27433C2F20003036040F22E
:101E70007410C2F2000008608020106070470000FB
:101E80004FF0FF31024642F8081F00214260C0E9CE
:101E900003220160704700000021016170470000CB
:101EA00080B5D1F800C01CF1010207D000F1080391
:101EB0009E465B681A686245FAD901E0D0F810E0E6
:101EC000DEF8042008614A609160C1F808E0CEF8AD
:101ED000041001680131016080BD0000D0F800C02D
:101EE000436808619A684B608A609A68996051609B
:101EF0000CF10101016070474FF0500080F3118830
:101F0000BFF36F8FBFF34F8F40F21000C2F200009B
:101F1000016801310160704740F21000C2F2000018
:101F200001680139016018BF7047002080F31188F3
:101F300070470000B0B520B150F8041CB1F1FF3F6C
:101F400000DDB0BDA0F108042268002A18BFB0BDB2
:101F500021F0004140F8041C054600F0DBFA42F68F
:101F6000B461C2F2000155F8040C0B682A4618440B
:101F7000086042F6F061C2F2000100BF084609683D
:101F8000A142FBD34368C518A54204D152F8042CE2
:101F900004461A4442606368E2188A4201D00A4645
:101FA0000AE040F2DC32C2F200021268914203D031
:101FB000D1E9002119446160A042226018BF046089
:101FC00042F6D060C2F20000016801310160BDE854
:101FD000B04001F073B8000040F20C00C2F2000003
:101FE000016844F6D352C1F26202A1FB02139909BF
:101FF00042F67463C2F2000319606FF07F43B3FBD3
:10200000F1F142F6BC63C2F20003196042F670615E
:10201000C2F2000101230B704EF21001CEF200015A
:1020200000230B608B600068A0FB02024FF0FF30C2
:1020300000EB9210486007200860704770B542F6C8
:10204000BC61C2F200010C68A04238BF044672B6FF
:10205000BFF34F8FBFF36F8FFFF7FAF9002855D00A
:102060004EF21001CEF200010620086042F6746CB8
:102070004EF6045E8B68C2F2000CCEF2000EDCF865
:102080000020002B08BF1346601EDEF8005002FB44
:1020900000336A0106D54FF00072CEF80020DCF85C
:1020A00000209B1A42F6706EC2F2000E9EF80020CD
:1020B000002A18BF5E229A1A98BF1A4600234A6067
:1020C0008B600B6843F001030B6024B1BFF34F8FAB
:1020D00030BFBFF36F8F062362B6BFF34F8FBFF3DE
:1020E0006F8F72B6BFF34F8FBFF36F8F0B600B68AC
:1020F000DB030DD48868DCF8002002FB04F31B1A14
:10210000B3FBF2F0461C7243D21A13E062B670BD04
:10211000DCF800608C68751EA21A9EF80040531906
:10212000002C1A4618BF5E24B34288BF2A46A34239
:1021300098BF2A464A6000228A6007220A60DCF8BB
:102140000020013A4A6000F0C5F962B670BD000097
:1021500070B5002846D0044642F68060C2F2000006
:10216000016840F2D4350131016042F62070C2F2BC
:102170000000C2F20005066828680430FFF75AFE26
:1021800060B9286842F68862C06AC2F20002012182
:10219000136801FA00F023EA000010602868A4190F
:1021A000446009D340F2E030C2F2000000682968C0
:1021B0000431FFF775FE10E040F2D830C2F20000A3
:1021C000006829680431FFF76BFE42F6C460C2F272
:1021D000000001688C4238BF046000F06FFF0028E7
:1021E00018BF70BD4EF60450CEF200004FF0805183
:1021F0000160BFF34F8FBFF36F8F70BD70B50446A2
:10220000FFF77AFE40F2D436002CC2F2000608BF77
:102210003468251D2846FFF70DFEA0B9E06A40F29C
:10222000E43200EB8001C2F2000252F8211051B9F1
:1022300042F68862C2F200020121136801FA00F03E
:1022400023EA00001060A06A18B104F11800FFF73B
:10225000F1FD42F68460C2F20000016801310160C4
:102260003068844216D042F67860C2F200000168FD
:102270000139016040F2D830C2F2000001680968FB
:10228000B1B1006842F6C461C068C2F200010068E2
:10229000086014E042F60C70C2F200002946FFF715
:1022A0001DFE42F67C60C2F200000168013105E0CB
:1022B00042F6C460C2F200004FF0FF310160FFF748
:1022C0002BFE306884420AD094F85100012803D0D4
:1022D00028B9206BFFF72EFE2046FFF72BFE42F6B3
:1022E000EC60C2F20000006870B13068844218BF30
:1022F00070BD4EF60450CEF200004FF080510160E8
:10230000BFF34F8FBFF36F8F70BD000042F6C861FF
:10231000C2F200010968016042F62071C2F20001B8
:10232000096841607047000042F62470C2F2000064
:10233000012101607047000010B50C4640F2D43115
:10234000C2F2000109681831FFF7AAFD20460121F9
:10235000BDE81040FFF73EBA00284AD0436CC26A7D
:102360008B4288BF19468A4208BF7047836C012B95
:102370003FD18369C162002B5CBFC1F12001816143
:1023800070B540F2E435416902EB8202C2F2000509
:1023900005EB820291422AD1041D06462046FFF732
:1023A00049FD002842F688603146C2F2000007D19C
:1023B000CA6A0123066803FA02F226EA02020260F0
:1023C000CA6A0123066893403343036002EB82002C
:1023D00005EB800253684A619E688B60CE609E6800
:1023E0009C60746055F82010013145F82010BDE85C
:1023F0007040704770B584B0002503A802A901AAF7
:10240000CDE90255FFF72EFD029EAEB3039C9CB3AF
:10241000019D20465421FDF7D0FF022084F8510091
:1024200006EB8500043820F00705002027A126636D
:102430000A5C23180130052883F83420F8D10020E5
:1024400084F84300E0626064201DFFF725FD04F17D
:102450001800FFF721FD202041F6C911A061C0F648
:1024600000012846002224616462FFF79FFC20607F
:102470002046FFF70FFA254642F6B860C2F2000088
:102480000560E5B14FF0500080F31188BFF36F8F06
:10249000BFF34F8F42F6C460C2F200004FF0FF312D
:1024A000016042F6EC60C2F200000121016042F6D8
:1024B0002070C2F200000021016000F069F843F2D0
:1024C0004420C0F60000006804B070BD49444C458B
:1024D00000000000B0B542F62075C2F2000542F6D9
:1024E000C46104462868C2F2000109682044884299
:1024F0000BD1FFF701FD42F6D460C2F20000016883
:1025000001310160FFF708FD013C28682044286084
:10251000B0BD000042F68060C2F2000001680131E7
:102520000160704742F68060C2F20000006830B17E
:1025300042F62470C2F2000001210160704742F6A9
:102540002470C2F200000021016042F68860C2F2ED
:1025500000000068B0FA80F0C0B2C0F11F0040F285
:10256000E43100EB8000C2F2000101EB8000416821
:1025700000F1080249689142416001D14968416017
:10258000406840F2D431C068C2F200010860704770
:1025900010B582B04EF62050CEF20000016841F432
:1025A00070010160016841F070410160FFF714FDA6
:1025B00040F21000C2F2000000240460FFF7DCFAD1
:1025C000FFF7B0FF01944FF0500080F31188BFF384
:1025D0006F8FBFF34F8F00BF01980028FCD0002001
:1025E00002B010BD80B54FF0500080F31188BFF3EA
:1025F0006F8FBFF34F8F00F061FB30B14EF6045088
:10260000CEF200004FF080510160002080F311886D
:1026100080BD0000B0B50C460546FFF76DFCA86C08
:1026200008B1002405E0A86B002806BFAC640124B3
:102630000024FFF771FC2046B0BD000004210022F9
:10264000AFF3008000283FD0A0FB0123E3BB01FBD8
:1026500000F212F14D0F37D8B0B5044602F14C002C
:102660000D46FFF7EDFA014600284FF0000008BFC5
:10267000B0BD81F846000846002D18BF4C300860F8
:10268000C1E90F4500240D46FFF736FC2868D5E95F
:102690000F12AC6302FB0103013901FB0201C5E922
:1026A0000103FF20E96085F8440085F8450005F145
:1026B0001000FFF7E5FB05F12400FFF7E1FBFFF752
:1026C0002BFC2846AC64B0BD002070472DE9F04FCC
:1026D00085B01D46019104460492FFF70DFCA06BE6
:1026E000022D5CD0E16B884259D304F11007012020
:1026F00002AE4FF0000B0DF1100900BF0499002944
:1027000077D0C00702D03046FFF700FEFFF704FC89
:10271000FFF700FFFFF7F0FB94F84400FF2808BF25
:1027200084F844B094F84500FF2808BF84F845B009
:10273000FFF7F2FB3046494600F01EFA00285BD155
:10274000FFF7DAFBD4F838A0D4F83C80FFF7E4FBBD
:10275000C24515D104993846FFF7EEFD2046FFF734
:102760002DFA00F0ABFC80B94EF60450CEF200001A
:102770004FF080510160BFF34F8FBFF36F8F04E0C4
:102780002046FFF71BFA00F099FCFFF7B5FBA06BA2
:10279000022D04D0E16B88424FF00000AED2A66B50
:1027A000226CA76BD2B185B3E0680199FDF7C0FD3B
:1027B000E168206C2268091A9142E16003D2A168A5
:1027C00040420844E060A81EB0FA80F04009394653
:1027D000002F18BF012108403F1A23E0206808BBE2
:1027E000A06800F037FB0021B0FA80F0A16040093A
:1027F00019E0FFF791FB04E02046FFF7DFF900F056
:102800005DFC002005B0BDE8F08F60680199FDF720
:102810008FFDD4E90101226C10448842606001D32D
:10282000206860600120791CA163A16C91B1022D28
:1028300000D176BB2046FFF75BF950B34EF604504B
:10284000CEF200004FF080510160BFF34F8FBFF315
:102850006F8F1EE054F8241F79B1204600F0A6FBCC
:10286000B8B14EF60450CEF200004FF08051016036
:10287000BFF34F8FBFF36F8F0BE050B94EF604508C
:10288000CEF200004FF080510160BFF34F8FBFF3D5
:102890006F8FFFF741FB012005B0BDE8F08F00000E
:1028A0002DE9F04F85B0054600F1100A243002AF43
:1028B0000DF110094FF000080191049200900CE016
:1028C0002846FFF77BF900F0F9FBFFF715FBAC6B2F
:1028D000FFF722FB002C00F08480FFF70DFBD5F8FA
:1028E00038B0BBF1000F27D02A6C5AB1D5E90201EC
:1028F0001144E960814224BF2868E860E9680198D2
:10290000FDF716FDABF10100A863286970B15046D0
:1029100000F04CFB50B14EF60450CEF200004FF0E8
:1029200080510160BFF34F8FBFF36F8FFFF7F4FA51
:1029300000200126A0B955E0049850B1B8F1000F6D
:1029400002D13846FFF7E2FC4FF00108012038B908
:1029500048E0FFF7E1FA00260020002842D000BF3F
:10296000FFF7DAFAFFF7D6FDFFF7C6FA95F844004D
:10297000FF2804BF002085F8440095F84500FF2893
:1029800004BF002085F84500FFF7C6FA38464946DF
:1029900000F0F2F800287FF493AFFFF7ADFAAC6BCC
:1029A000FFF7BAFA2CB12846FFF708F900F086FBCA
:1029B00093E704990098FFF7BFFC2846FFF7FEF85D
:1029C00000F07CFB00287FF488AF4EF60450CEF276
:1029D00000004FF080510160BFF34F8FBFF36F8F46
:1029E0007BE70026304605B0BDE8F08F80B582B0A9
:1029F0000A460021019101A9FFF752FF019802B098
:102A000080BD00002DE9F04F87B0044600F1100BA7
:102A10002430019000260DF1100806AD002006912B
:102A2000CDE902000DE000BF2046FFF7C7F800F037
:102A300045FBFFF761FAA76BFFF76EFA002F00F076
:102A40008480FFF759FAA06B00B30138A0632068B7
:102A500010B9FFF79FF9A060DBF8000070B158468D
:102A600000F0A4FA50B14EF60450CEF200004FF040
:102A700080510160BFF34F8FBFF36F8FFFF74CFAA8
:102A80004FF0010A002098B972E000BF069840B1EB
:102A9000039810B94046FFF739FC0120039038B97C
:102AA00066E0FFF739FA00204FF0000A00285FD0F7
:102AB000FFF732FAFFF72EFDFFF71EFA94F84400F5
:102AC000FF2808BF84F8446094F84500FF2808BF39
:102AD00084F84560FFF720FA4046294600F04CF89C
:102AE0000028A1D1FFF708FAD4F83890FFF714FABC
:102AF000B9F1000F06D02046FFF760F800F0DEFACB
:102B000000269EE72068002638B9FFF7F5F9A0688F
:102B100000F0ECF90290FFF7FFF906990198FFF732
:102B20000BFC2046FFF74AF800F0C8FA00287FF4B3
:102B300088AF4EF60450CEF200004FF08051016095
:102B4000BFF34F8FBFF36F8F7BE7029870B1FFF732
:102B5000D3F9606A20B1206B0068C0F1200100E069
:102B60000021A068FFF7F8FBFFF7D6F94FF0000A45
:102B7000504607B0BDE8F08F70B50C460546FFF72C
:102B8000BBF942F6207EC2F2000EDEF8003021686A
:102B90004A1C1CD042F6C86CC2F2000CD5E90002F7
:102BA000DCF80060864201D093420CD29A1A91421E
:102BB00009D9881A2060DCF8000000242860DEF8BB
:102BC0000000686004E000202060012400E0002490
:102BD000FFF7A2F9204670BD2DE9F047814690002D
:102BE000984614460F46FFF72BF888B10546542047
:102BF000FFF726F848B154210646FDF7DEFB3563A2
:102C00004EB94FF0FF30BDE8F0872846FFF792F944
:102C10000026002EF5D0002086F85100306BDDF83C
:102C200024A000EB8400089D043820F0070477B14D
:102C300006F13400002100BF7A5C42547A5C1AB17C
:102C40000F2901F10101F7D1002086F84300301D62
:102C50001F2D28BF1F25F5627564FFF71DF906F1CA
:102C60001800FFF719F9C5F12000B0612046494668
:102C7000424636617662FFF799F830603046BAF125
:102C8000000F18BFCAF80060FEF704FE0120BDE87F
:102C9000F087000042F6EC60C2F2000000680028F5
:102CA00004BF0120704742F68060C2F20000006855
:102CB000B0FA80F0400940007047000042F68060A2
:102CC000C2F20000006840B142F6D460C2F20000D7
:102CD000016801310160002070472DE9F04F42F694
:102CE0002070C2F20000016842F6C46211F1010EC8
:102CF000C2F20002C0F800E01CD340F2D83040F22B
:102D0000E033C2F20000C2F2000301681F680760EE
:102D1000196042F6C861C2F200010B6801330B6012
:102D20000168096819B10068C068006801E04FF0E7
:102D3000FF301060106840F2E4388645C2F20008A7
:102D400001D200206EE040F2D83AC2F2000ADAF86E
:102D500000004FF000090068002858D042F6886B48
:102D6000C2F2000B002025E0F96ADBF80020012305
:102D70008B401A43CBF8002001EB810208EB820361
:102D80005E687B61B468BE60FC60B468B560656015
:102D900058F82230013348F8223040F2D432C2F2DF
:102DA00000021268D26ADAF80030914288BF01202E
:102DB000196881B3DAF80010C968CF683D4655F844
:102DC000044FA64529D3D7E902617C69B160D4F8E4
:102DD00004C0F968AC454E6008BF6160C7F8149044
:102DE000216801392160BC6A002CBDD0D7E9076198
:102DF0006368B160396A07F1180293424E6008BFF8
:102E00006160C7F82890216801392160ACE74FF074
:102E1000FF34002005E04FF0FF3442F6C462C2F2F6
:102E20000002146040F2D431C2F200010968C96A9C
:102E300001EB810158F82110012942F62471C2F2F8
:102E4000000188BF01200968002918BF0120BDE8E2
:102E5000F08F0000002804BF002070470146826CFC
:102E6000406CCB6A013A83424FF000008A643CD048
:102E7000002A18BF704770B50E1D30460D46FEF78C
:102E8000D9FF42F6886C2946C2F2000C48B9C86ADC
:102E90000123DCF8005003FA00F025EA0000CCF82A
:102EA00000004B6CC3F12000CB6288610120DCF88C
:102EB000005000FA03F22A43CCF8002040F2E43C30
:102EC00003EB8302C2F2000C0CEB82056B684D61D0
:102ED0009C688B60CC609C689E6066605CF8221089
:102EE00001314CF82210BDE870407047002804BF43
:102EF00000207047F0B581B040F2D435C2F2000531
:102F0000C16A2A68D26A914218D28269002A04D41E
:102F10002A68D26AC2F12002826140F2E436426934
:102F200001EB8101C2F2000606EB81018A420ED05C
:102F30002968C96AC162012001B0F0BD416C2868EE
:102F4000C26A0020914238BF012001B0F0BD041DCB
:102F500007462046FEF76EFF42F688623946C2F207
:102F6000000238B9C86A0123176803FA00F027EA9B
:102F7000000010602868C36A0120CB62176800FA5D
:102F800003F52F43176003EB830206EB82035F68B0
:102F90004B61BD688F60CD60BD68BC606C6056F8E9
:102FA0002210013146F8221001B0F0BD10B5C06802
:102FB000C068D0E90713826A8B60036AD2F804E024
:102FC00000F1180C59600021E64508BF536081628A
:102FD00011680139116042F68061C2F2000109688E
:102FE00089B142F6D861C2F200010A684B68013229
:102FF0009C68C36104629C68C3F808C0C4F804C03C
:1030000081620A6041E0D0E9021342698B60D2F824
:1030100004E0C36800F1040CE645596008BF536042
:10302000116842F6886401391160C16AC2F2000475
:103030004FF0010E22680EFA01F340F2E43E1A430B
:1030400001EB8101C2F2000E22600EEB81035C688D
:103050004361A2688460C260A268C4F808C0C2F874
:1030600004C05EF8212001324EF8212040F2D83110
:10307000C2F200010A681268CAB1096842F6C46265
:10308000C968C2F200020968116040F2D431C2F28C
:103090000001C06A0968C96A884291BF002042F6EF
:1030A0002471C2F20001012088BF086010BD42F601
:1030B000C461C2F200014FF0FF32A2E72DE9F04FE8
:1030C00081B0FEF719FF42F68060C2F2000001688D
:1030D00001390160006830B10024FEF71DFF204671
:1030E00001B0BDE8F08F42F67860C2F200000068DF
:1030F0000028F1D042F6D86AC2F2000ADAF80010CD
:1031000042F624780029C2F2000868D042F6886BA3
:1031100040F2E43440F2D43E4FF0000C4FF001098D
:10312000C2F2000BC2F20004C2F2000EDAF80C1078
:10313000CE68D6E90721B76A91607868316A06F1EE
:103140001805A8424A6008BF7960C6F828C03868E8
:1031500001383860D6E90202716982604A68F56810
:10316000371DBA42686008BF4D60086801380860C2
:10317000F06ADBF8001009FA00F21143CBF80010F6
:1031800000EB800104EB810255687261AB68B560A9
:10319000F360AB68AF605F6054F82120013244F8FF
:1031A0002120DEF80010C96A884228BFC8F80090C4
:1031B000DAF800000028B9D18EB140F2D830C2F25E
:1031C00000000168096819B10068C068006801E082
:1031D0004FF0FF3042F6C461C2F20001086042F6CF
:1031E000D464C2F20004256855B10126FFF766FDDC
:1031F000002818BFC8F80060013DF7D1002020600A
:10320000D8F8000000283FF467AF4EF60450CEF225
:1032100000004FF080510160BFF34F8F0124BFF3D6
:103220006F8F5AE73A7474003A7474003A747400F9
:103230000204060800000000010203040102030466
:10324000060708091F00000068320008000000207F
:10325000180000005001000880320008180000200B
:1032600010350000700100080000000000000000A0
:103270000000000000A24A04AAAAAAAA00000000B6
:04000005080000ED02
:00000001FF
